{
  "transactions": [
    {
      "hash": "0x375c060b81eadc7c0104a2d45bddf51404b44df6423d4364cf70ba9311c381eb",
      "transactionType": "CREATE",
      "contractName": "MyContract",
      "contractAddress": "0xfc664bbc37a04cd70c08ef0493e178ff9178f154",
      "function": null,
      "arguments": [
        "0x9D29D33d4329640e96cC259E141838EB3EB2f1d9"
      ],
      "transaction": {
        "from": "0x99bda7fd93a5c41ea537182b37215567e832a726",
        "gas": "0x29f18",
        "value": "0x0",
        "input": "0x608060405234801561001057600080fd5b506040516101633803806101638339818101604052602081101561003357600080fd5b5051600080546001600160a01b039092166001600160a01b031990921691909117905560ff806100646000396000f3fe6080604052348015600f57600080fd5b506004361060325760003560e01c80636121061e1460375780637ca2474e14603f575b600080fd5b603d6061565b005b604560ba565b604080516001600160a01b039092168252519081900360200190f35b60008054604080516335f9cd5560e11b815290516001600160a01b0390921692636bf39aaa9260048084019382900301818387803b15801560a157600080fd5b505af115801560b4573d6000803e3d6000fd5b50505050565b6000546001600160a01b03168156fea2646970667358221220965076896533b8418250a5fd57a8ef2b022ac7f81d26e514be229699d51bc0f764736f6c634300070000330000000000000000000000009d29d33d4329640e96cc259e141838eb3eb2f1d9",
        "nonce": "0x26",
        "chainId": "0xaa36a7"
      },
      "additionalContracts": [],
      "isFixedGasLimit": false
    },
    {
      "hash": "0xd19a17c8208c4186ad3c82945cac3d3675c5f123beb9affec29b1702e17b4b05",
      "transactionType": "CALL",
      "contractName": null,
      "contractAddress": "0x9d29d33d4329640e96cc259e141838eb3eb2f1d9",
      "function": "flip(bool)",
      "arguments": [
        "false"
      ],
      "transaction": {
        "from": "0x99bda7fd93a5c41ea537182b37215567e832a726",
        "to": "0x9d29d33d4329640e96cc259e141838eb3eb2f1d9",
        "gas": "0xce2d",
        "value": "0x0",
        "input": "0x1d263f670000000000000000000000000000000000000000000000000000000000000000",
        "nonce": "0x27",
        "chainId": "0xaa36a7"
      },
      "additionalContracts": [],
      "isFixedGasLimit": false
    }
  ],
  "receipts": [
    {
      "status": "0x1",
      "cumulativeGasUsed": "0xb59b37",
      "logs": [],
      "logsBloom": "0x00000000000000000000000000000000000000000000000000000000000000000000000000000000000000000000000000000000000000000000000000000000000000000000000000000000000000000000000000000000000000000000000000000000000000000000000000000000000000000000000000000000000000000000000000000000000000000000000000000000000000000000000000000000000000000000000000000000000000000000000000000000000000000000000000000000000000000000000000000000000000000000000000000000000000000000000000000000000000000000000000000000000000000000000000000000",
      "type": "0x2",
      "transactionHash": "0x375c060b81eadc7c0104a2d45bddf51404b44df6423d4364cf70ba9311c381eb",
      "transactionIndex": "0x7a",
      "blockHash": "0x65e0b4b297c7aaea3c818ff53927db1040c47604bc38cef882aea0bb2c097c3b",
      "blockNumber": "0x60fb30",
      "gasUsed": "0x20454",
      "effectiveGasPrice": "0x6482e4d6b",
      "from": "0x99bda7fd93a5c41ea537182b37215567e832a726",
      "to": null,
      "contractAddress": "0xfc664bbc37a04cd70c08ef0493e178ff9178f154"
    }
  ],
  "libraries": [],
  "pending": [],
  "returns": {},
  "timestamp": 1721645823,
  "chain": 11155111,
  "commit": "a5ce2c6"
}