{
  "transactions": [
    {
      "hash": "0x7f78a6ba1d5a11b8660d21fb090c9cd045b56ca658074521981c429f8ee5cdb1",
      "transactionType": "CREATE",
      "contractName": "MyContract",
      "contractAddress": "0x00742347a250cd2e42879d69f1a8955e13db4e1a",
      "function": null,
      "arguments": [
        "0x9D29D33d4329640e96cC259E141838EB3EB2f1d9"
      ],
      "transaction": {
        "from": "0x99bda7fd93a5c41ea537182b37215567e832a726",
        "gas": "0x29f18",
        "value": "0x0",
        "input": "0x608060405234801561001057600080fd5b506040516101633803806101638339818101604052602081101561003357600080fd5b5051600080546001600160a01b039092166001600160a01b031990921691909117905560ff806100646000396000f3fe6080604052348015600f57600080fd5b506004361060325760003560e01c80636121061e1460375780637ca2474e14603f575b600080fd5b603d6061565b005b604560ba565b604080516001600160a01b039092168252519081900360200190f35b60008054604080516335f9cd5560e11b815290516001600160a01b0390921692636bf39aaa9260048084019382900301818387803b15801560a157600080fd5b505af115801560b4573d6000803e3d6000fd5b50505050565b6000546001600160a01b03168156fea2646970667358221220965076896533b8418250a5fd57a8ef2b022ac7f81d26e514be229699d51bc0f764736f6c634300070000330000000000000000000000009d29d33d4329640e96cc259e141838eb3eb2f1d9",
        "nonce": "0x23",
        "chainId": "0xaa36a7"
      },
      "additionalContracts": [],
      "isFixedGasLimit": false
    },
    {
      "hash": "0xf1e4c652f013ffc403369a9d3212dab3a59203038075bb599e091c0e0a10ff55",
      "transactionType": "CALL",
      "contractName": null,
      "contractAddress": "0x9d29d33d4329640e96cc259e141838eb3eb2f1d9",
      "function": "flip(bool)",
      "arguments": [
        "false"
      ],
      "transaction": {
        "from": "0x99bda7fd93a5c41ea537182b37215567e832a726",
        "to": "0x9d29d33d4329640e96cc259e141838eb3eb2f1d9",
        "gas": "0xce2d",
        "value": "0x0",
        "input": "0x1d263f670000000000000000000000000000000000000000000000000000000000000000",
        "nonce": "0x24",
        "chainId": "0xaa36a7"
      },
      "additionalContracts": [],
      "isFixedGasLimit": false
    }
  ],
  "receipts": [
    {
      "status": "0x1",
      "cumulativeGasUsed": "0x89d198",
      "logs": [],
      "logsBloom": "0x00000000000000000000000000000000000000000000000000000000000000000000000000000000000000000000000000000000000000000000000000000000000000000000000000000000000000000000000000000000000000000000000000000000000000000000000000000000000000000000000000000000000000000000000000000000000000000000000000000000000000000000000000000000000000000000000000000000000000000000000000000000000000000000000000000000000000000000000000000000000000000000000000000000000000000000000000000000000000000000000000000000000000000000000000000000",
      "type": "0x2",
      "transactionHash": "0x7f78a6ba1d5a11b8660d21fb090c9cd045b56ca658074521981c429f8ee5cdb1",
      "transactionIndex": "0x4e",
      "blockHash": "0xb3fb0756382f6e34dae0a07e79b1c37b917da04b7d7ed74bd0e2f247ee600ec3",
      "blockNumber": "0x60fb28",
      "gasUsed": "0x20454",
      "effectiveGasPrice": "0x6ba51a274",
      "from": "0x99bda7fd93a5c41ea537182b37215567e832a726",
      "to": null,
      "contractAddress": "0x00742347a250cd2e42879d69f1a8955e13db4e1a"
    },
    {
      "status": "0x1",
      "cumulativeGasUsed": "0x8a5e92",
      "logs": [],
      "logsBloom": "0x00000000000000000000000000000000000000000000000000000000000000000000000000000000000000000000000000000000000000000000000000000000000000000000000000000000000000000000000000000000000000000000000000000000000000000000000000000000000000000000000000000000000000000000000000000000000000000000000000000000000000000000000000000000000000000000000000000000000000000000000000000000000000000000000000000000000000000000000000000000000000000000000000000000000000000000000000000000000000000000000000000000000000000000000000000000",
      "type": "0x2",
      "transactionHash": "0xf1e4c652f013ffc403369a9d3212dab3a59203038075bb599e091c0e0a10ff55",
      "transactionIndex": "0x4f",
      "blockHash": "0xb3fb0756382f6e34dae0a07e79b1c37b917da04b7d7ed74bd0e2f247ee600ec3",
      "blockNumber": "0x60fb28",
      "gasUsed": "0x8cfa",
      "effectiveGasPrice": "0x6ba51a274",
      "from": "0x99bda7fd93a5c41ea537182b37215567e832a726",
      "to": "0x9d29d33d4329640e96cc259e141838eb3eb2f1d9",
      "contractAddress": null
    }
  ],
  "libraries": [],
  "pending": [],
  "returns": {},
  "timestamp": 1721645716,
  "chain": 11155111,
  "commit": "a5ce2c6"
}