{
  "transactions": [
    {
      "hash": "0xc5febd1685db762c1073d0d18b56a738bb64311663c8afacd38e5a7d1f8eff86",
      "transactionType": "CALL",
      "contractName": null,
      "contractAddress": "0x9d29d33d4329640e96cc259e141838eb3eb2f1d9",
      "function": "flip(bool)",
      "arguments": [
        "false"
      ],
      "transaction": {
        "from": "0x99bda7fd93a5c41ea537182b37215567e832a726",
        "to": "0x9d29d33d4329640e96cc259e141838eb3eb2f1d9",
        "gas": "0xce2d",
        "value": "0x0",
        "input": "0x1d263f670000000000000000000000000000000000000000000000000000000000000000",
        "nonce": "0x2c",
        "chainId": "0xaa36a7"
      },
      "additionalContracts": [],
      "isFixedGasLimit": false
    }
  ],
  "receipts": [
    {
      "status": "0x1",
      "cumulativeGasUsed": "0x82c4eb",
      "logs": [],
      "logsBloom": "0x00000000000000000000000000000000000000000000000000000000000000000000000000000000000000000000000000000000000000000000000000000000000000000000000000000000000000000000000000000000000000000000000000000000000000000000000000000000000000000000000000000000000000000000000000000000000000000000000000000000000000000000000000000000000000000000000000000000000000000000000000000000000000000000000000000000000000000000000000000000000000000000000000000000000000000000000000000000000000000000000000000000000000000000000000000000",
      "type": "0x2",
      "transactionHash": "0xc5febd1685db762c1073d0d18b56a738bb64311663c8afacd38e5a7d1f8eff86",
      "transactionIndex": "0x4f",
      "blockHash": "0x11cdcc973d322961d621be0560bd081bb964c9dadacb74b75a34ccec11081c77",
      "blockNumber": "0x60fb6c",
      "gasUsed": "0x8cfa",
      "effectiveGasPrice": "0x697a6a8f3",
      "from": "0x99bda7fd93a5c41ea537182b37215567e832a726",
      "to": "0x9d29d33d4329640e96cc259e141838eb3eb2f1d9",
      "contractAddress": null
    }
  ],
  "libraries": [],
  "pending": [],
  "returns": {},
  "timestamp": 1721646785,
  "chain": 11155111,
  "commit": "a5ce2c6"
}